{
  "address": "0xa3Ce41430f671e0F7BCa3BeE6550dEf2D484C3eD",
  "abi": [
    {
      "anonymous": false,
      "inputs": [
        {
          "indexed": true,
          "internalType": "uint256",
          "name": "MatchChallengeId",
          "type": "uint256"
        },
        {
          "indexed": false,
          "internalType": "uint8",
          "name": "team1Result",
          "type": "uint8"
        },
        {
          "indexed": false,
          "internalType": "uint8",
          "name": "team2Result",
          "type": "uint8"
        }
      ],
      "name": "ChallengeResult",
      "type": "event"
    },
    {
      "inputs": [
        {
          "internalType": "uint256",
          "name": "_challengeId",
          "type": "uint256"
        }
      ],
      "name": "acceptChallenge",
      "outputs": [],
      "stateMutability": "payable",
      "type": "function"
    },
    {
      "inputs": [
        {
          "internalType": "uint256",
          "name": "_challengeId",
          "type": "uint256"
        },
        {
          "internalType": "uint8",
          "name": "_team1Result",
          "type": "uint8"
        },
        {
          "internalType": "uint8",
          "name": "_team2Result",
          "type": "uint8"
        }
      ],
      "name": "completeChallenge",
      "outputs": [],
      "stateMutability": "nonpayable",
      "type": "function"
    },
    {
      "inputs": [
        {
          "internalType": "address",
          "name": "_team2",
          "type": "address"
        },
        {
          "internalType": "address",
          "name": "_locationProvider",
          "type": "address"
        }
      ],
      "name": "createChallenge",
      "outputs": [],
      "stateMutability": "payable",
      "type": "function"
    },
    {
      "inputs": [
        {
          "internalType": "uint256",
          "name": "_challengeId",
          "type": "uint256"
        }
      ],
      "name": "deleteChallenge",
      "outputs": [],
      "stateMutability": "nonpayable",
      "type": "function"
    },
    {
      "inputs": [
        {
          "internalType": "uint256",
          "name": "",
          "type": "uint256"
        }
      ],
      "name": "matchChallenges",
      "outputs": [
        {
          "internalType": "address",
          "name": "team1",
          "type": "address"
        },
        {
          "internalType": "address",
          "name": "team2",
          "type": "address"
        },
        {
          "internalType": "enum SportsChallenges.MatchStatus",
          "name": "matchStatus",
          "type": "uint8"
        },
        {
          "internalType": "uint256",
          "name": "amount",
          "type": "uint256"
        },
        {
          "internalType": "address",
          "name": "locationProvider",
          "type": "address"
        }
      ],
      "stateMutability": "view",
      "type": "function"
    },
    {
      "inputs": [
        {
          "internalType": "uint256",
          "name": "_challengeId",
          "type": "uint256"
        }
      ],
      "name": "startChallenge",
      "outputs": [],
      "stateMutability": "nonpayable",
      "type": "function"
    },
    {
      "inputs": [
        {
          "internalType": "uint256",
          "name": "_challengeId",
          "type": "uint256"
        },
        {
          "internalType": "address",
          "name": "_newLocationProvider",
          "type": "address"
        }
      ],
      "name": "updateLocationProvider",
      "outputs": [],
      "stateMutability": "nonpayable",
      "type": "function"
    },
    {
      "inputs": [
        {
          "internalType": "uint256",
          "name": "_id",
          "type": "uint256"
        }
      ],
      "name": "viewMatchChallenge",
      "outputs": [
        {
          "internalType": "address[3]",
          "name": "",
          "type": "address[3]"
        }
      ],
      "stateMutability": "view",
      "type": "function"
    },
    {
      "inputs": [
        {
          "internalType": "uint256",
          "name": "_id",
          "type": "uint256"
        }
      ],
      "name": "viewMatchStatus",
      "outputs": [
        {
          "internalType": "enum SportsChallenges.MatchStatus",
          "name": "",
          "type": "uint8"
        }
      ],
      "stateMutability": "view",
      "type": "function"
    }
  ],
  "transactionHash": "0x2bab5195ff295e7fa63e8d6f5634333ec2ae0abd6f2dce347831f3748e5facbe",
  "args": [],
  "numDeployments": 1,
  "solcInputHash": "a8e82865a549152b3ecd8f238d99cfca",
  "bytecode": "0x608060405234801561001057600080fd5b50612564806100206000396000f3fe6080604052600436106100865760003560e01c80636ad4e87a116100595780636ad4e87a146101225780637555ce9a1461014b5780638df9378a14610188578063c40ab0ef146101c5578063e61a067c1461020657610086565b8063030a80821461008b57806311a5800d146100b45780631b0fc106146100dd5780631e750b54146100f9575b600080fd5b34801561009757600080fd5b506100b260048036038101906100ad9190611952565b610222565b005b3480156100c057600080fd5b506100db60048036038101906100d691906119a5565b610967565b005b6100f760048036038101906100f291906119a5565b610e93565b005b34801561010557600080fd5b50610120600480360381019061011b9190611a30565b610fff565b005b34801561012e57600080fd5b50610149600480360381019061014491906119a5565b61122f565b005b34801561015757600080fd5b50610172600480360381019061016d91906119a5565b611480565b60405161017f9190611ae7565b60405180910390f35b34801561019457600080fd5b506101af60048036038101906101aa91906119a5565b6114bb565b6040516101bc9190611bad565b60405180910390f35b3480156101d157600080fd5b506101ec60048036038101906101e791906119a5565b61164d565b6040516101fd959493929190611be6565b60405180910390f35b610220600480360381019061021b9190611c39565b611700565b005b6002600381111561023657610235611a70565b5b6000848154811061024a57610249611c79565b5b906000526020600020906004020160010160149054906101000a900460ff16600381111561027b5761027a611a70565b5b146102bb576040517f08c379a00000000000000000000000000000000000000000000000000000000081526004016102b290611d05565b60405180910390fd5b600083815481106102cf576102ce611c79565b5b906000526020600020906004020160030160009054906101000a900473ffffffffffffffffffffffffffffffffffffffff1673ffffffffffffffffffffffffffffffffffffffff163373ffffffffffffffffffffffffffffffffffffffff161461036e576040517f08c379a000000000000000000000000000000000000000000000000000000000815260040161036590611d97565b60405180910390fd5b60036000848154811061038457610383611c79565b5b906000526020600020906004020160010160146101000a81548160ff021916908360038111156103b7576103b6611a70565b5b0217905550827fe07ce8213c97adb2c7dd4e814f63b8613e929623bd94f12b0bbbdb67ea097f6f83836040516103ee929190611dc6565b60405180910390a2600066071afd498d000060026000868154811061041657610415611c79565b5b9060005260206000209060040201600201546104329190611e1e565b61043c9190611e60565b9050600080858154811061045357610452611c79565b5b906000526020600020906004020160030160009054906101000a900473ffffffffffffffffffffffffffffffffffffffff1673ffffffffffffffffffffffffffffffffffffffff166605543df729c0006040516104af90611ec5565b60006040518083038185875af1925050503d80600081146104ec576040519150601f19603f3d011682016040523d82523d6000602084013e6104f1565b606091505b50509050600115158115151461053c576040517f08c379a000000000000000000000000000000000000000000000000000000000815260040161053390611f4c565b60405180910390fd5b8260ff168460ff16111561064357600080868154811061055f5761055e611c79565b5b906000526020600020906004020160000160009054906101000a900473ffffffffffffffffffffffffffffffffffffffff1673ffffffffffffffffffffffffffffffffffffffff16836040516105b490611ec5565b60006040518083038185875af1925050503d80600081146105f1576040519150601f19603f3d011682016040523d82523d6000602084013e6105f6565b606091505b505090506001151581151514610641576040517f08c379a000000000000000000000000000000000000000000000000000000000815260040161063890611fb8565b60405180910390fd5b505b8260ff168460ff16101561074a57600080868154811061066657610665611c79565b5b906000526020600020906004020160010160009054906101000a900473ffffffffffffffffffffffffffffffffffffffff1673ffffffffffffffffffffffffffffffffffffffff16836040516106bb90611ec5565b60006040518083038185875af1925050503d80600081146106f8576040519150601f19603f3d011682016040523d82523d6000602084013e6106fd565b606091505b505090506001151581151514610748576040517f08c379a000000000000000000000000000000000000000000000000000000000815260040161073f90612024565b60405180910390fd5b505b8260ff168460ff160361096057600080868154811061076c5761076b611c79565b5b906000526020600020906004020160000160009054906101000a900473ffffffffffffffffffffffffffffffffffffffff1673ffffffffffffffffffffffffffffffffffffffff166002846107c19190612073565b6040516107cd90611ec5565b60006040518083038185875af1925050503d806000811461080a576040519150601f19603f3d011682016040523d82523d6000602084013e61080f565b606091505b50509050600115158115151461085a576040517f08c379a000000000000000000000000000000000000000000000000000000000815260040161085190611fb8565b60405180910390fd5b600080878154811061086f5761086e611c79565b5b906000526020600020906004020160010160009054906101000a900473ffffffffffffffffffffffffffffffffffffffff1673ffffffffffffffffffffffffffffffffffffffff166002856108c49190612073565b6040516108d090611ec5565b60006040518083038185875af1925050503d806000811461090d576040519150601f19603f3d011682016040523d82523d6000602084013e610912565b606091505b50509050600115158115151461095d576040517f08c379a000000000000000000000000000000000000000000000000000000000815260040161095490611fb8565b60405180910390fd5b50505b5050505050565b6002600381111561097b5761097a611a70565b5b6000828154811061098f5761098e611c79565b5b906000526020600020906004020160010160149054906101000a900460ff1660038111156109c0576109bf611a70565b5b10610a00576040517f08c379a00000000000000000000000000000000000000000000000000000000081526004016109f790612116565b60405180910390fd5b60008181548110610a1457610a13611c79565b5b906000526020600020906004020160000160009054906101000a900473ffffffffffffffffffffffffffffffffffffffff1673ffffffffffffffffffffffffffffffffffffffff163373ffffffffffffffffffffffffffffffffffffffff161480610aef575060008181548110610a8e57610a8d611c79565b5b906000526020600020906004020160010160009054906101000a900473ffffffffffffffffffffffffffffffffffffffff1673ffffffffffffffffffffffffffffffffffffffff163373ffffffffffffffffffffffffffffffffffffffff16145b80610b6a575060008181548110610b0957610b08611c79565b5b906000526020600020906004020160030160009054906101000a900473ffffffffffffffffffffffffffffffffffffffff1673ffffffffffffffffffffffffffffffffffffffff163373ffffffffffffffffffffffffffffffffffffffff16145b610ba9576040517f08c379a0000000000000000000000000000000000000000000000000000000008152600401610ba0906121a8565b60405180910390fd5b600360008281548110610bbf57610bbe611c79565b5b906000526020600020906004020160010160146101000a81548160ff02191690836003811115610bf257610bf1611a70565b5b02179055506000808281548110610c0c57610c0b611c79565b5b906000526020600020906004020160000160009054906101000a900473ffffffffffffffffffffffffffffffffffffffff1673ffffffffffffffffffffffffffffffffffffffff1660008381548110610c6857610c67611c79565b5b906000526020600020906004020160020154604051610c8690611ec5565b60006040518083038185875af1925050503d8060008114610cc3576040519150601f19603f3d011682016040523d82523d6000602084013e610cc8565b606091505b505090506001151581151514610d13576040517f08c379a0000000000000000000000000000000000000000000000000000000008152600401610d0a90611fb8565b60405180910390fd5b60016003811115610d2757610d26611a70565b5b60008381548110610d3b57610d3a611c79565b5b906000526020600020906004020160010160149054906101000a900460ff166003811115610d6c57610d6b611a70565b5b03610e8f576000808381548110610d8657610d85611c79565b5b906000526020600020906004020160010160009054906101000a900473ffffffffffffffffffffffffffffffffffffffff1673ffffffffffffffffffffffffffffffffffffffff1660008481548110610de257610de1611c79565b5b906000526020600020906004020160020154604051610e0090611ec5565b60006040518083038185875af1925050503d8060008114610e3d576040519150601f19603f3d011682016040523d82523d6000602084013e610e42565b606091505b505090506001151581151514610e8d576040517f08c379a0000000000000000000000000000000000000000000000000000000008152600401610e8490612024565b60405180910390fd5b505b5050565b60008181548110610ea757610ea6611c79565b5b906000526020600020906004020160010160009054906101000a900473ffffffffffffffffffffffffffffffffffffffff1673ffffffffffffffffffffffffffffffffffffffff163373ffffffffffffffffffffffffffffffffffffffff1614610f46576040517f08c379a0000000000000000000000000000000000000000000000000000000008152600401610f3d90612214565b60405180910390fd5b60008181548110610f5a57610f59611c79565b5b906000526020600020906004020160020154341015610fae576040517f08c379a0000000000000000000000000000000000000000000000000000000008152600401610fa590612280565b60405180910390fd5b600160008281548110610fc457610fc3611c79565b5b906000526020600020906004020160010160146101000a81548160ff02191690836003811115610ff757610ff6611a70565b5b021790555050565b6000828154811061101357611012611c79565b5b906000526020600020906004020160000160009054906101000a900473ffffffffffffffffffffffffffffffffffffffff1673ffffffffffffffffffffffffffffffffffffffff163373ffffffffffffffffffffffffffffffffffffffff1614806110ee57506000828154811061108d5761108c611c79565b5b906000526020600020906004020160010160009054906101000a900473ffffffffffffffffffffffffffffffffffffffff1673ffffffffffffffffffffffffffffffffffffffff163373ffffffffffffffffffffffffffffffffffffffff16145b61112d576040517f08c379a0000000000000000000000000000000000000000000000000000000008152600401611124906122ec565b60405180910390fd5b6002600381111561114157611140611a70565b5b6000838154811061115557611154611c79565b5b906000526020600020906004020160010160149054906101000a900460ff16600381111561118657611185611a70565b5b10156111c7576040517f08c379a00000000000000000000000000000000000000000000000000000000081526004016111be9061237e565b60405180910390fd5b80600083815481106111dc576111db611c79565b5b906000526020600020906004020160030160006101000a81548173ffffffffffffffffffffffffffffffffffffffff021916908373ffffffffffffffffffffffffffffffffffffffff1602179055505050565b6001600381111561124357611242611a70565b5b6000828154811061125757611256611c79565b5b906000526020600020906004020160010160149054906101000a900460ff16600381111561128857611287611a70565b5b146112c8576040517f08c379a00000000000000000000000000000000000000000000000000000000081526004016112bf90612410565b60405180910390fd5b3373ffffffffffffffffffffffffffffffffffffffff16600082815481106112f3576112f2611c79565b5b906000526020600020906004020160030160009054906101000a900473ffffffffffffffffffffffffffffffffffffffff1673ffffffffffffffffffffffffffffffffffffffff161461137b576040517f08c379a0000000000000000000000000000000000000000000000000000000008152600401611372906124a2565b60405180910390fd5b600073ffffffffffffffffffffffffffffffffffffffff16600082815481106113a7576113a6611c79565b5b906000526020600020906004020160010160009054906101000a900473ffffffffffffffffffffffffffffffffffffffff1673ffffffffffffffffffffffffffffffffffffffff160361142f576040517f08c379a00000000000000000000000000000000000000000000000000000000081526004016114269061250e565b60405180910390fd5b60016000828154811061144557611444611c79565b5b906000526020600020906004020160010160146101000a81548160ff0219169083600381111561147857611477611a70565b5b021790555050565b600080828154811061149557611494611c79565b5b906000526020600020906004020160010160149054906101000a900460ff169050919050565b6114c36118bc565b60008083815481106114d8576114d7611c79565b5b906000526020600020906004020160000160009054906101000a900473ffffffffffffffffffffffffffffffffffffffff169050600080848154811061152157611520611c79565b5b906000526020600020906004020160010160009054906101000a900473ffffffffffffffffffffffffffffffffffffffff169050600080858154811061156a57611569611c79565b5b906000526020600020906004020160030160009054906101000a900473ffffffffffffffffffffffffffffffffffffffff169050600060405180606001604052808573ffffffffffffffffffffffffffffffffffffffff1673ffffffffffffffffffffffffffffffffffffffff1681526020018473ffffffffffffffffffffffffffffffffffffffff1673ffffffffffffffffffffffffffffffffffffffff1681526020018373ffffffffffffffffffffffffffffffffffffffff1673ffffffffffffffffffffffffffffffffffffffff16815250905080945050505050919050565b6000818154811061165d57600080fd5b90600052602060002090600402016000915090508060000160009054906101000a900473ffffffffffffffffffffffffffffffffffffffff16908060010160009054906101000a900473ffffffffffffffffffffffffffffffffffffffff16908060010160149054906101000a900460ff16908060020154908060030160009054906101000a900473ffffffffffffffffffffffffffffffffffffffff16905085565b60006040518060a001604052803373ffffffffffffffffffffffffffffffffffffffff1681526020018473ffffffffffffffffffffffffffffffffffffffff1681526020016000600381111561175957611758611a70565b5b81526020013481526020018373ffffffffffffffffffffffffffffffffffffffff16815250908060018154018082558091505060019003906000526020600020906004020160009091909190915060008201518160000160006101000a81548173ffffffffffffffffffffffffffffffffffffffff021916908373ffffffffffffffffffffffffffffffffffffffff16021790555060208201518160010160006101000a81548173ffffffffffffffffffffffffffffffffffffffff021916908373ffffffffffffffffffffffffffffffffffffffff16021790555060408201518160010160146101000a81548160ff021916908360038111156118605761185f611a70565b5b02179055506060820151816002015560808201518160030160006101000a81548173ffffffffffffffffffffffffffffffffffffffff021916908373ffffffffffffffffffffffffffffffffffffffff16021790555050505050565b6040518060600160405280600390602082028036833780820191505090505090565b600080fd5b6000819050919050565b6118f6816118e3565b811461190157600080fd5b50565b600081359050611913816118ed565b92915050565b600060ff82169050919050565b61192f81611919565b811461193a57600080fd5b50565b60008135905061194c81611926565b92915050565b60008060006060848603121561196b5761196a6118de565b5b600061197986828701611904565b935050602061198a8682870161193d565b925050604061199b8682870161193d565b9150509250925092565b6000602082840312156119bb576119ba6118de565b5b60006119c984828501611904565b91505092915050565b600073ffffffffffffffffffffffffffffffffffffffff82169050919050565b60006119fd826119d2565b9050919050565b611a0d816119f2565b8114611a1857600080fd5b50565b600081359050611a2a81611a04565b92915050565b60008060408385031215611a4757611a466118de565b5b6000611a5585828601611904565b9250506020611a6685828601611a1b565b9150509250929050565b7f4e487b7100000000000000000000000000000000000000000000000000000000600052602160045260246000fd5b60048110611ab057611aaf611a70565b5b50565b6000819050611ac182611a9f565b919050565b6000611ad182611ab3565b9050919050565b611ae181611ac6565b82525050565b6000602082019050611afc6000830184611ad8565b92915050565b600060039050919050565b600081905092915050565b6000819050919050565b611b2b816119f2565b82525050565b6000611b3d8383611b22565b60208301905092915050565b6000602082019050919050565b611b5f81611b02565b611b698184611b0d565b9250611b7482611b18565b8060005b83811015611ba5578151611b8c8782611b31565b9650611b9783611b49565b925050600181019050611b78565b505050505050565b6000606082019050611bc26000830184611b56565b92915050565b611bd1816119f2565b82525050565b611be0816118e3565b82525050565b600060a082019050611bfb6000830188611bc8565b611c086020830187611bc8565b611c156040830186611ad8565b611c226060830185611bd7565b611c2f6080830184611bc8565b9695505050505050565b60008060408385031215611c5057611c4f6118de565b5b6000611c5e85828601611a1b565b9250506020611c6f85828601611a1b565b9150509250929050565b7f4e487b7100000000000000000000000000000000000000000000000000000000600052603260045260246000fd5b600082825260208201905092915050565b7f4368616c6c656e6765206861736e277420737461727465642100000000000000600082015250565b6000611cef601983611ca8565b9150611cfa82611cb9565b602082019050919050565b60006020820190508181036000830152611d1e81611ce2565b9050919050565b7f596f75206d75737420626520746865206c6f636174696f6e2070726f7669646560008201527f7220746f207361792077686f20776f6e00000000000000000000000000000000602082015250565b6000611d81603083611ca8565b9150611d8c82611d25565b604082019050919050565b60006020820190508181036000830152611db081611d74565b9050919050565b611dc081611919565b82525050565b6000604082019050611ddb6000830185611db7565b611de86020830184611db7565b9392505050565b7f4e487b7100000000000000000000000000000000000000000000000000000000600052601160045260246000fd5b6000611e29826118e3565b9150611e34836118e3565b9250828202611e42816118e3565b91508282048414831517611e5957611e58611def565b5b5092915050565b6000611e6b826118e3565b9150611e76836118e3565b9250828203905081811115611e8e57611e8d611def565b5b92915050565b600081905092915050565b50565b6000611eaf600083611e94565b9150611eba82611e9f565b600082019050919050565b6000611ed082611ea2565b9150819050919050565b7f455448206469646e27742073656e6420746f206c6f636174696f6e2070726f7660008201527f696465722e000000000000000000000000000000000000000000000000000000602082015250565b6000611f36602583611ca8565b9150611f4182611eda565b604082019050919050565b60006020820190508181036000830152611f6581611f29565b9050919050565b7f455448206469646e27742073656e6420746f207465616d20312e000000000000600082015250565b6000611fa2601a83611ca8565b9150611fad82611f6c565b602082019050919050565b60006020820190508181036000830152611fd181611f95565b9050919050565b7f455448206469646e27742073656e6420746f207465616d20322e000000000000600082015250565b600061200e601a83611ca8565b915061201982611fd8565b602082019050919050565b6000602082019050818103600083015261203d81612001565b9050919050565b7f4e487b7100000000000000000000000000000000000000000000000000000000600052601260045260246000fd5b600061207e826118e3565b9150612089836118e3565b92508261209957612098612044565b5b828204905092915050565b7f4368616c6c656e67652068617320616c7265616479206265656e20737461727460008201527f6564206f722066696e6973686564210000000000000000000000000000000000602082015250565b6000612100602f83611ca8565b915061210b826120a4565b604082019050919050565b6000602082019050818103600083015261212f816120f3565b9050919050565b7f596f75277265206e6f7420616e79206f6620746865207465616d73206e6f722060008201527f746865206c6f636174696f6e2070726f76696465722100000000000000000000602082015250565b6000612192603683611ca8565b915061219d82612136565b604082019050919050565b600060208201905081810360008301526121c181612185565b9050919050565b7f596f75277265206e6f7420746865206368616c6c656e676564207465616d2100600082015250565b60006121fe601f83611ca8565b9150612209826121c8565b602082019050919050565b6000602082019050818103600083015261222d816121f1565b9050919050565b7f486176656e27742073656e7420656e6f75676820455448210000000000000000600082015250565b600061226a601883611ca8565b915061227582612234565b602082019050919050565b600060208201905081810360008301526122998161225d565b9050919050565b7f596f75277265206e6f7420616e79206f6620746865207465616d732100000000600082015250565b60006122d6601c83611ca8565b91506122e1826122a0565b602082019050919050565b60006020820190508181036000830152612305816122c9565b9050919050565b7f4368616c6c656e67652068617320616c7265616479206265656e20737461727460008201527f6564210000000000000000000000000000000000000000000000000000000000602082015250565b6000612368602383611ca8565b91506123738261230c565b604082019050919050565b600060208201905081810360008301526123978161235b565b9050919050565b7f5465616d32206861736e277420616363657074656420746865206368616c6c6560008201527f6e6765206f722069742068617320616c72656164792073746172746564210000602082015250565b60006123fa603e83611ca8565b91506124058261239e565b604082019050919050565b60006020820190508181036000830152612429816123ed565b9050919050565b7f596f75277265206e6f7420746865206c6f636174696f6e2070726f766964657260008201527f2100000000000000000000000000000000000000000000000000000000000000602082015250565b600061248c602183611ca8565b915061249782612430565b604082019050919050565b600060208201905081810360008301526124bb8161247f565b9050919050565b7f4c61636b696e672061207465616d206f72206d617463682063616e63656c6564600082015250565b60006124f8602083611ca8565b9150612503826124c2565b602082019050919050565b60006020820190508181036000830152612527816124eb565b905091905056fea2646970667358221220b2e7df417c4bfddbf73c3bac39a641594cc45f9fc75a801d751e9b6c166e710564736f6c63430008110033",
  "devdoc": {
    "kind": "dev",
    "methods": {},
    "version": 1
  },
  "userdoc": {
    "kind": "user",
    "methods": {},
    "version": 1
  },
  "storageLayout": {
    "storage": [
      {
        "astId": 22,
        "contract": "contracts/SportsChallenge.sol:SportsChallenges",
        "label": "matchChallenges",
        "offset": 0,
        "slot": "0",
        "type": "t_array(t_struct(MatchChallenge)18_storage)dyn_storage"
      }
    ],
    "types": {
      "t_address": {
        "encoding": "inplace",
        "label": "address",
        "numberOfBytes": "20"
      },
      "t_array(t_struct(MatchChallenge)18_storage)dyn_storage": {
        "base": "t_struct(MatchChallenge)18_storage",
        "encoding": "dynamic_array",
        "label": "struct SportsChallenges.MatchChallenge[]",
        "numberOfBytes": "32"
      },
      "t_enum(MatchStatus)6": {
        "encoding": "inplace",
        "label": "enum SportsChallenges.MatchStatus",
        "numberOfBytes": "1"
      },
      "t_struct(MatchChallenge)18_storage": {
        "encoding": "inplace",
        "label": "struct SportsChallenges.MatchChallenge",
        "members": [
          {
            "astId": 8,
            "contract": "contracts/SportsChallenge.sol:SportsChallenges",
            "label": "team1",
            "offset": 0,
            "slot": "0",
            "type": "t_address"
          },
          {
            "astId": 10,
            "contract": "contracts/SportsChallenge.sol:SportsChallenges",
            "label": "team2",
            "offset": 0,
            "slot": "1",
            "type": "t_address"
          },
          {
            "astId": 13,
            "contract": "contracts/SportsChallenge.sol:SportsChallenges",
            "label": "matchStatus",
            "offset": 20,
            "slot": "1",
            "type": "t_enum(MatchStatus)6"
          },
          {
            "astId": 15,
            "contract": "contracts/SportsChallenge.sol:SportsChallenges",
            "label": "amount",
            "offset": 0,
            "slot": "2",
            "type": "t_uint256"
          },
          {
            "astId": 17,
            "contract": "contracts/SportsChallenge.sol:SportsChallenges",
            "label": "locationProvider",
            "offset": 0,
            "slot": "3",
            "type": "t_address"
          }
        ],
        "numberOfBytes": "128"
      },
      "t_uint256": {
        "encoding": "inplace",
        "label": "uint256",
        "numberOfBytes": "32"
      }
    }
  }
}